:020000040000FA
:0400000080311C2807
:100008007E1480310B1F09280A281A282E00991CF3
:100018000E280F2814288F1C1228132814281A2891
:10002800191C172818281A280F081A287E100900E2
:1000380080311E282000CE01CF01D001D101D2018C
:100048007E1020008431922C2000B2002230A600BD
:100058002608AB00262A253033060319342835280C
:1000680041283308A6003208860087012608810047
:100078000130A6002608B207262AB001B101AF0157
:100088004A282F150130A0070030A13D2008840020
:10009800210885000008303A03194528532820080C
:1000A80084002108850000088F319A278031031CBD
:1000B8005E285F2895282000B001B1010A30F000C1
:1000C8000030F10020003108F3003008F2008F31D1
:1000D800E127803171082000B1007008B0002008C5
:1000E8008400210885000008D03EA600FF300318D0
:1000F8000030A7002608B0072708B13D0130A00747
:100108000030A13D200884002108850000088F31B7
:100118009A27803103189128922862289528AF17CA
:10012800B02820002108A7002008A600A00A03196B
:10013800A10A26088400270885000008B300003AB1
:1001480003193A2A643A0319B0280D3A0319B0285A
:10015800113A03199328262AAF1BB328B428CD28AF
:100168002B0886008701403FAD00413FAE000230BA
:10017800A6002608AB07AE1FC228C32827290330CC
:10018800A6002608AF04AD09AE09AD0A0319AE0AE8
:1001980027292B0886008701403FAD00413FAE006C
:1001A8000230A6002608AB072729B301B30A330893
:1001B800A600A701A635A70D243026078400903095
:1001C800273D8500003FA800013FA90029082E020D
:1001D800031DF02828082D020318F328F428F52811
:1001E80030290130A6002608B30705303306031D61
:1001F800FE28FF28DB283029B301B30A3308A600FC
:10020800A701A635A70D0030260784009030273DAA
:100218008500003FA800013FA90029082E02031D00
:10022800172928082D0203181A291B291C293029E7
:100238000130A6002608B30704303306031D25291C
:100248002629022930292F088039003A0319D9288C
:10025800803A031900293029300831040319352957
:10026800362940292F08033903193B293C294029FD
:10027800FF30B007FF30B13D3108803A803C031DA4
:1002880047293008330203184A294B2954292000EA
:100298003308A600A7012608B0022708B13B572952
:1002A8002000B001B1012F1D5A295B2988292F0888
:1002B80003390319602961296C292D30A6003208F9
:1002C80086008701260881000130A6002608B207AB
:1002D80030083104031971297229B4293030A60075
:1002E800320886008701260881000130A60026080A
:1002F800B207FF30B007FF30B13D30083104031DAD
:10030800862987297229B4293008310403198D29CF
:100318008E29A3292030A6003208860087012608E6
:1003280081000130A6002608B207FF30B007FF3071
:10033800B13D30083104031DA229A3298E292F08B5
:1003480003390319A829A929B4292D30A600320890
:1003580086008701260881000130A6002608B2071A
:100368003308A6002608AC001D2A0A30F800003021
:10037800F9002C08A600A701A635A70D24302607EA
:1003880084009030273D8500003FF000013FF100D8
:100398002E08F3002D08F2008731442780317108B8
:1003A800FB007008FA008731BB2780317808303E9F
:1003B8002000A8002808B300122A2C08A600A701CC
:1003C800A635A70D0030260784009030273D85000C
:1003D800003FF000013FF1002E08F3002D08F20065
:1003E80087314427803170080F392000A800280879
:1003F800AA002A08083E840090300318013E8500B0
:100408000008A6002608B300122A2F088039003AEF
:100418000319B929803A0319E129122A3308A600D9
:10042800320886008701260881000130A6002608C8
:10043800B207FF30A6002608AC072C0A031D252AA0
:10044800262A092A2108A7002008A600A00A0319BD
:10045800A10A26088400270885000008A8002808A3
:10046800B3003308031D392A3A2A2F283208860098
:10047800870181010800F60023000F0C890C01395F
:10048800F20011081F397204031D4B2A4C2A402A16
:1004980011141118502A512A4D2A0F0C890C0139B0
:1004A800F20011081F397204031D5B2A5C2A512AC5
:1004B8004E308631B626823123000F0C890C013963
:1004C800F20011081F397204031D6B2A6C2A602A76
:1004D8007608FA388631B626823123000F0C890C4B
:1004E8000139F20011081F397204031D7C2A7D2A84
:1004F800712A7608FE388631B626823123000F0C21
:10050800890C0139F20011081F397204031D8D2A64
:100518008E2A822A230091149118932A942A902AC9
:100528000F0C890C0139F20011081F397204031DE0
:100538009E2A9F2A942A4F308631B626823123007C
:100548000F0C890C0139F20011081F397204031DC0
:10055800AE2AAF2AA32A8F31AC278231F200720863
:10056800F40023000F0C890C0139F20011081F391F
:100578007204031DC02AC12AB52A91161116111A30
:10058800C62AC72AC32A91149118CB2ACC2AC82A6A
:100598000F0C890C0139F20011081F397204031D70
:1005A800D62AD72ACC2A4E308631B6268231230065
:1005B8000F0C890C0139F20011081F397204031D50
:1005C800E62AE72ADB2A7608FA388631B626823107
:1005D80023000F0C890C0139F20011081F3972042D
:1005E800031DF72AF82AEC2A7608FE388631B62643
:1005F800823123000F0C890C0139F20011081F39D0
:100608007204031D082B092BFD2A2300911491184D
:100618000E2B0F2B0B2B0F0C890C0139F200110834
:100628001F397204031D192B1A2B0F2B4F308631DB
:10063800B626823123000F0C890C0139F20011080B
:100648001F397204031D292B2A2B1E2B8F31AC272F
:100658008231F2007208F50023000F0C890C013971
:10066800F20011081F397204031D3B2B3C2B302B61
:1006780091161116111A412B422B3E2B91149118E9
:10068800462B472B432B0F0C890C0139F20011081C
:100698001F397204031D512B522B472B4E308631C4
:1006A800B626823123000F0C890C0139F20011089B
:1006B8001F397204031D612B622B562B7608FA38FA
:1006C8008631B626823123000F0C890C0139F200DD
:1006D80011081F397204031D722B732B672B111518
:1006E8001119772B782B742B7508F2000430F23629
:1006F800890B7B2B0F307205F3007408F0397304F3
:10070800080023000F0C890C0139F20011081F3969
:100718007204031D902B912B852B11141118952B06
:10072800962B922B0F0C890C0139F20011081F39F6
:100738007204031DA02BA12B962B9A308631B62666
:10074800833123000F0C890C0139F20011081F397D
:100758007204031DB02BB12BA52B01308631B626B0
:10076800833123000F0C890C0139F20011081F395D
:100778007204031DC02BC12BB52B91149118C52BE6
:10078800C62BC22B0F0C890C0139F20011081F3936
:100798007204031DD02BD12BC62B9B308631B62675
:1007A800833123000F0C890C0139F20011081F391D
:1007B8007204031DE02BE12BD52B8F31AC2783313D
:1007C800F2007208F30023000F0C890C0139F200C3
:1007D80011081F397204031DF22BF32BE72B911616
:1007E8001116111AF82BF92BF52B0F0C890C01395E
:1007F800F20011081F397204031D032C042CF92B75
:1008080011151119082C092C052C731F0C2C0D2CF3
:10081800852B0F0C890C0139F20011081F3972045D
:10082800031D172C182C0D2C111411181C2C1D2C01
:10083800192C0F0C890C0139F20011081F397204A8
:10084800031D272C282C1D2C9A308631B62683317F
:1008580023000F0C890C0139F20011081F397204AA
:10086800031D372C382C2C2C00308631B6268331CA
:1008780023000F0C890C0139F20011081F3972048A
:10088800031D472C482C3C2C911491184C2C4D2CB2
:10089800492C0F0C890C0139F20011081F39720418
:1008A800031D572C582C4D2C9B308631B62683318E
:1008B80023000F0C890C0139F20011081F3972044A
:1008C800031D672C682C5C2C8F31AC278331F20018
:1008D8007208F30023000F0C890C0139F20011088B
:1008E8001F397204031D792C7A2C6E2C911611165F
:1008F800111A7F2C802C7C2C0F0C890C0139F200EA
:1009080011081F397204031D8A2C8B2C802C111599
:1009180011198F2C902C8C2C730808002000CC0106
:10092800CD018F31902784318731EF278431200022
:10093800931513163E00CF154F1686314526843180
:1009480003102000171E03140318AB2CAE2C200034
:100958001716B02C200017120D1EB32CB42CE12C46
:100968000310161E03140318BA2CBD2C20001616EB
:10097800BF2C200016120310961E03140318C52C52
:10098800C82C20009616CA2C200096120310161F99
:1009980003140318D02CD32C20001617D52C2000B4
:1009A80016130310961F03140318DB2CDE2C2000EB
:1009B8009617E02C20009613E22C96010000833154
:1009C800852384312000B4003408C90080308F3179
:1009D800702784313F30F9009030FA008F31C627F4
:1009E800843185308F317027843119302000A00080
:1009F8009030A1004D08A3004C08A2003830803187
:100A0800282084313830F9000030FA008F31C627A9
:100A18008431C0308F317027843138302000A000F5
:100A28009030A1004908B400B5013408A200350887
:100A3800A30038308031282084313830F900003064
:100A4800FA008F31C6278431C5308F317027843141
:100A580044302000A0009030A1000D0E0139B400F0
:100A6800B5013408A2003508A300383080312820A9
:100A780084313830F9000030FA008F31C6278431CC
:100A880081308F3170278431003082313F228431A8
:100A98002000B4003408CA00013082313F2284317A
:100AA8002000B4003408CB00C8308F31702784315F
:100AB8002E302000A0009030A1004A08B400B501F3
:100AC8003408A2003508A3004B08B600B701360861
:100AD800A4003708A5003830803128208431383008
:100AE800F9000030FA008F31C62784310000043045
:100AF8002000B500CF30B4000130890B812DB40B34
:100B0800812DB50B812D003220004C08033ECC000E
:100B180000304D3DCD00A42C80311C28F50075080F
:100B2800F039F3007308F6007508F3000330F33565
:100B3800FF3E031D9B2D7335F039F4007408F70050
:100B480023000F0C890C0139F30011081F397304B5
:100B5800031DAF2DB02DA42D11141118B42DB52DD2
:100B6800B12D0F0C890C0139F30011081F397304DA
:100B7800031DBF2DC02DB52D4E308631B6268531CB
:100B880023000F0C890C0139F30011081F39730475
:100B9800031DCF2DD02DC42D760872040838863158
:100BA800B626853123000F0C890C0139F300110892
:100BB8001F397304031DE12DE22DD62D760872042A
:100BC8000C388631B626853123000F0C890C013983
:100BD800F30011081F397304031DF32DF42DE82DBC
:100BE8007608720408388631B626853123000F0C42
:100BF800890C0139F30011081F397304031D052EF0
:100C0800062EFA2D7708720408388631B626853103
:100C180023000F0C890C0139F30011081F397304E4
:100C2800031D172E182E0C2E770872040C388631E7
:100C3800B626853123000F0C890C0139F300110801
:100C48001F397304031D292E2A2E1E2E77087204BD
:100C580008388631B626853123000F0C890C0139F6
:100C6800F30011081F397304031D3B2E3C2E302E50
:100C780011151119402E412E3D2E0430890B422E9C
:100C880008001130F8003A30890B482EF80B482E2E
:100C980000323030873101278631343087310127DF
:100CA80086312930890B562E0032303087310127A2
:100CB8008631FA300032890B5E2E303087310127B9
:100CC800863134308731012786312930890B6A2EE5
:100CD800003230308731012786310830890B722E77
:100CE80000003030873101278631343087310127C1
:100CF80086312930890B7E2E00323030873101272A
:100D080086310830890B862E000020308731012774
:100D1800863124308731012786312930890B922E7C
:100D280000322030873101278631FA300032890BB2
:100D38009A2EF2012830853192258631F20106304B
:100D4800853192258631F2010F3085319225863121
:100D5800F2010130853192258631A630890BB22EF9
:100D680000320800F100710823008C00901FBD2E8E
:100D7800BE2EBF2E002F0F301005F0000830700671
:100D88000319C72EC82EDE2E0F301005F0000B30C9
:100D980070060319D02ED12EDE2E10162E000F1C31
:100DA800D62ED72ED22E23000F19DB2EDC2E002FA5
:100DB8000F08002F0F301005F000083070060319D7
:100DC800E62EE72EF02E0F301005F0000B307006DF
:100DD800031DEF2EF02E002F0F18F32EF42EF02EF9
:100DE8000F0C890C0139F00011081F397004031D1C
:100DF800FE2EFF2EF42E11080800F30023000F0C1E
:100E0800890C0139F20011081F397204031D0D2FD6
:100E18000E2F022F11141118122F132F0F2F0F0C32
:100E2800890C0139F20011081F397204031D1D2FA6
:100E38001E2F132F4E308631B626873123000F0C14
:100E4800890C0139F20011081F397204031D2D2F76
:100E58002E2F222F73088631B626873123000F0CD8
:100E6800890C0139F20011081F397204031D3D2F46
:100E78003E2F322F11151119422F432F3F2F0800F3
:100E8800F501F6017008710403194B2F4C2F7B2FC5
:100E9800F701F70A582F0130F035F10D890B502F63
:100EA8000130F4007408F707F11F5B2F5C2F4F2FF8
:100EB8000130F535F60D890B5D2F71087302031D9E
:100EC800672F70087202031C6A2F6B2F702F70082F
:100ED800F2027108F33B75140130F136F00C890BFE
:100EE800712F0130F702031D7A2F7B2F5C2F7608B4
:100EF800F1007508F000080020009A019901960198
:100F08009701980107309500FF309100FF3092005B
:100F1800FF309300FF309400FF303E00D900E730E7
:100F2800CE00FF30C3000730E400FF30B800DA011C
:100F3800E501C401B901CF01E601BA01C501D0013B
:100F4800DB01FF30BB00FF30C600FF30D100FF30AF
:100F5800DC000730E70013303D00C50014303E00C8
:100F6800A3001530A40014303D00C600080078081E
:100F780079040319C02FC12FEA2FFD01FD0ACD2FD7
:100F88000130F835F90D890BC52F0130FC007C08BC
:100F9800FD07F91FD02FD12FC42F79087B02031D1D
:100FA800D72F78087A02031CDA2FDB2FDF2F780877
:100FB800FA027908FB3B0130F936F80C890BE02F6F
:100FC8000130FD02031DE92FEA2FD12F7B08F9001C
:100FD8007A08F80008002300901AF32FF42FFA2F4C
:0E0FE8008F0128309000910103308D00080029
:101EE000F800F2017808853192258F310800F8005A
:101EF000F201F20A7808853192258F3108002F000F
:101F000096019701980199019A019B01080062309E
:101F100031008D008F019101023093009201080081
:101F20008F317F278F31873180278F318F318727FE
:101F30008F310800F100F0013A3071020318A12F2F
:101F4000A22FAA2F30307102031CA72FA82FAA2F6F
:101F5000F001F00A700C08000F3023001005F000AB
:101F6000083070060319B52FB62FBF2F0F3010059C
:101F7000F0000B307006031DBE2FBF2FC02F911530
:101F80000F1CC32FC42FC02F0C080800CB2F200814
:101F90008F3177278F317A08FC007908FB00F90A26
:101FA0000319FA0A7B0884007C0885000008FD00FC
:101FB0007D082000A0002008031DDF2FE02FC72F81
:101FC0000800F401F501701CE62FE72FEB2F7208D3
:101FD000F4077308F53D0130F235F30D890BEC2F52
:101FE0000130F136F00C890BF12F70087104031DDC
:101FF000FA2FFB2FE32F7508F1007408F00008009A
:10200000013400341034003400340134003410340E
:102010003034313432343334343435343634373484
:10202000383439346134623463346434653466344A
:10203000003443346C346F3463346B3420342534CF
:102040003034323464340034013400340A3400341F
:1020500064340034E8340334103427342534303405
:102060003234783420342534303432347834003407
:10207000253430343234643420344334003454341E
:0E20800065346D34703400342534643400341B
:020000040001F9
:0A000E00EC3FFF3F9F3FFF3FFF3F25
:00000001FF
