:020000040000FA
:04000000803114280F
:100008007E1480312E00961E0A280B2812288C1E7A
:100018000E280F2812288331BD2380317E10090055
:1000280080311628F701F801F901FA01FB01FC01FA
:100038002000A001A101A201A301A401A501A6011C
:100048007E102000803128288231DB2280312E006A
:10005800961282319F22803159288231F7228031CD
:10006800792881314C21803179288131C52180312D
:10007800792882312822803179288031C92080313D
:10008800792881318B218031792881310D21803186
:10009800792882317D22803179288131F821803197
:1000A800792880318420803179287C08013A031925
:1000B8003128033A03193528013A03193928073A30
:1000C80003193D28013A03194128033A0319452821
:1000D800013A031949280F3A03194D28013A03191F
:1000E8005128033A0319552879287B0803197D28D4
:1000F8007E282D288331CC2380312D288031142867
:100108007A08031D882889288D2820009601FA017D
:10011800FA0A7A03031D91289228C22800308331F5
:100128007923803171082000AB007208AC002C0ED6
:100138000F39AB00AC012B08AD002D08A30000302F
:10014800F1007030F2002308AB002B08F300823175
:10015800BD2280310030F1007030F2008331F52388
:1001680080312000AB002B08A2002208AB0003302E
:10017800AB35FF3E031DBC282B3596007B080319C1
:10018800C628C728C828FA0108007A08031DCD2800
:10019800CE28D42820009601F701F70AFA01FA0AB6
:1001A8007A03031DD828D9280629003083317923FA
:1001B80080317208F50075082000A400D030890B42
:1001C800E3280000EB285330890BE82800000130B1
:1001D8002000A402240A031DF228F328E728770840
:1001E800F5000330F535FF3E031DF62875359600FA
:1001F8000310F70D10307706031D0329042906297B
:10020800F701F70A7B0803190A290B290C29FA01B7
:1002180008007A08031D112912291C2920009601BB
:100228001616F801F80A84313C248131FA01FA0AD9
:100238007A03031D20292129422984312F24813161
:10024800003A03192829292921292E001010843160
:100258000A2481310310F80D10307806031D352962
:1002680036293829F801F80A7808F3000330F335FD
:10027800FF3E031D3B297335200096007B080319B8
:10028800462947294B29843139248131FA0108004C
:100298007A08031D502951295829200096018431D4
:1002A8003C248131FA01FA0A7A03031D5C295D298D
:1002B800812984312F248131003A03196429652961
:1002C8005D292E00101084310A2481310130F30099
:1002D80073082000A60703302606031D7429752914
:1002E80081290310161E031403187B297E29200078
:1002F8001616802920001612A6017B0803198529E5
:1003080086298A29843139248131FA0108007A083A
:10031800031D8F2990299A292000960183319E2355
:10032800813184312B248131FA01FA0A7A03031DC1
:100338009E299F29B829003083317923813171089A
:10034800F5007208F6000630F636F50C890BA82978
:1003580075082000A0007608A1002108F2002008F6
:10036800F1008331242381317B080319BC29BD297D
:10037800C4298431272481318331AE238131FA01A4
:1003880008007A08031DC929CA29D1292000960125
:100398001616F801F80AFA01FA0A7A03031DD52994
:1003A800D629F1295230F1002A30890BD929F10BCD
:1003B800D9290310F80D10307806031DE429E52922
:1003C800E729F801F80A7808F1000330F135FF3E13
:1003D800031DEA297135200096007B080319F529C9
:1003E800F629F729FA0108007A08031DFC29FD29D6
:1003F8000E2A20001617161B022A052A2000161698
:10040800072A200016129613961230000C14630067
:10041800FA01FA0A7A03031D122A132A212A200054
:10042800161316129617961B1A2A1D2A20009616BE
:100438001F2A2000961230000C107B080319252A69
:10044800262A272AFA0108007A08031D2C2A2D2AB1
:10045800312A20009601FA01FA0A7A03031D352A87
:10046800362A502A003083317923823171082000DE
:10047800AB007208AC002C0E0F39AB00AC012B0896
:10048800AD002D08A5002508AB000330AB35FF3EB5
:10049800031D4A2A2B3596007B080319542A552A2E
:1004A800562AFA01080020009A019901960197013D
:1004B8009801073095000F309100FF309200FF300F
:1004C8009300FF309400FF303E00D900FF30CE008B
:1004D800EF30C3000730E4000F30B800DA01E5015F
:1004E800C401B901CF01E601BA01C501D001DB01A0
:1004F80008007A08031D812A822A942A200096017E
:100508001616F801F80A8B170B172E0096163A30B4
:10051800F1000330F200843121248231FA01FA0A11
:100528007B080319982A992A9E2A2E0096128B1363
:100538000B13FA0108007908031DA32AA42AB42A78
:1005480020000D1AA82AA92ABC2A1130F1003A3035
:10055800890BAC2AF10BAC2A0032F901F90ABC2A42
:1005680020000D1EB82AB92ABC2AF901FB01FB0A92
:10057800080000308B1B0130F400720830009B002B
:1005880071089A0073089C001E171E158B135530AE
:100598009F00AA309F009E149E18D32AD42AD02ADE
:1005A8001E11740C031C8B1303188B17080084315D
:1005B80013248231823157228231843101248231DD
:1005C80084311B2482318331E823823183315023E3
:1005D80082318331DA23823183310E2382318331B0
:1005E8006523823108007A08031DFB2AFC2A002BA8
:1005F80020009601FA01FA0A7A03031D042B052B41
:10060800072B200016167B0803190B2B0C2B0D2B20
:10061800FA01080024008F019001013091000B308D
:100628008D00DC308C000D082000A80024000C0888
:100638002000A7002E001010013024008E000800B2
:100648007208F4007108F300F436F30CF436F30C76
:10065800730827008D0071080339F3000530F3355E
:10066800FF3E031D332B73358C0008007803031DF0
:100678003E2B3F2B432B1030F0007008F80003107E
:10068800F80C7808F0000330F035FF3E031D482BC6
:10069800703520009600080022008E018F0190011D
:1006A8009101920193018D0121009E019B0194010A
:1006B8009501960197019A0199019801803093005C
:1006C8000800483020009F00F3309D009C012E0058
:1006D8008C1296163F30F1000430F2008431212448
:1006E8008331803020009E000800F4007408210047
:1006F8009E009317131313140000832B640021002A
:100708001318872B882B822B0D08F2000C08F10098
:10071800080024000E1D912B922B992B0E107208A5
:100728008D0071088C000E149D2B72088D007108C5
:100738008C00080055303D008F00AA308F000F1044
:100748000E303E00970055303D008F00AA308F00D4
:100758000F14080055303D008F00AA308F000F108D
:100768003E00970155303D008F00AA308F000F14CE
:1007780008002E008C12200029082A040319C52B12
:10078800C62BCB2B2A088A0029080A0083310800C7
:10079800FB010130F1007108FC070B307C02031CDF
:1007A800D62BD72BD92BFC01FC0A080001302500D9
:1007B80090008F019101FF308D008C012E00901068
:1007C800803025008E000800803027008E00CC3055
:1007D8008D0080308C0024001F08F33904389F00F6
:1007E8000800720830009B0071089A001E171E143A
:1007F8000000000030001C080800623031008D0045
:100808008F0191010130930092010800200028080F
:10081800F2002708F10083318D23843108002F006E
:1008280096019701980199019A019B0108001830D7
:1008380030008C0017308D00080072082000AA00D4
:100848007108A900080084313324843108008431F8
:100858003624843108002E001008013908002500CC
:100868008E13080025008E17080024000E100800BB
:0808780024000E140800080022
:020000040001F9
:0A000E00EC3FFF37AC0FFF3FFF3F50
:00000001FF
