:020000040000FA
:0400000080311C2807
:100008007E1480310B1F09280A281A282E00991CF3
:100018000E280F2814288F1C1228132814281A2891
:10002800191C172818281A280F081A287E100900E2
:1000380080311E282000CE01CF01D001D1017E10D1
:1000480020008531442D2000B2002230A600260869
:10005800AB00252A253033060319332834284028D5
:100068003308A6003208860087012608810001307F
:10007800A6002608B207252AB001B101AF01492818
:100088002F150130A0070030A13D20088400210869
:1000980085000008303A03194428522820088400B3
:1000A8002108850000088F31EE278031031C5D2868
:1000B8005E2894282000B001B1010A30F000003019
:1000C800F10020003108F3003008F200873194274E
:1000D800803171082000B1007008B0002008840049
:1000E800210885000008D03EA600FF300318003024
:1000F800A7002608B0072708B13D0130A007003047
:10010800A13D200884002108850000088F31EE27D2
:10011800803103189028912861289428AF17AF28B8
:1001280020002108A7002008A600A00A0319A10A98
:1001380026088400270885000008B300003A031940
:10014800392A643A0319AF280D3A0319AF28113A2E
:1001580003199228252AAF1BB228B328CC282B08CC
:1001680086008701403FAD00413FAE000230A60047
:100178002608AB07AE1FC128C22826290330A600CF
:100188002608AF04AD09AE09AD0A0319AE0A26293F
:100198002B0886008701403FAD00413FAE0002308A
:1001A800A6002608AB072629B301B30A3308A60020
:1001B800A701A635A70D0B30260784009030273DF0
:1001C8008500003FA800013FA90029082E02031D51
:1001D800EF2828082D020318F228F328F4282F29DD
:1001E8000130A6002608B30705303306031DFD2895
:1001F800FE28DA282F29B301B30A3308A600A7017D
:10020800A635A70DE830260784008730273D8500EE
:10021800003FA800013FA90029082E02031D162946
:1002280028082D02031819291A291B292F290130FA
:10023800A6002608B30704303306031D2429252900
:1002480001292F292F088039003A0319D828803A24
:100258000319FF282F2930083104031934293529B7
:100268003F292F08033903193A293B293F29FF3031
:10027800B007FF30B13D3108803A803C031D462964
:1002880030083302031849294A2953292000330822
:10029800A600A7012608B0022708B13B562920006E
:1002A800B001B1012F1D59295A2987292F0803396F
:1002B80003195F2960296B292D30A60032088600B2
:1002C8008701260881000130A6002608B2073008F9
:1002D8003104031970297129B3293030A600320876
:1002E80086008701260881000130A6002608B2078B
:1002F800FF30B007FF30B13D30083104031D8529B8
:1003080086297129B3293008310403198C298D29CC
:10031800A2292030A600320886008701260881001D
:100328000130A6002608B207FF30B007FF30B13D04
:1003380030083104031DA129A2298D292F0803396A
:100348000319A729A829B3292D30A6003208860049
:100358008701260881000130A6002608B207330865
:10036800A6002608AC001C2A0A30F8000030F90064
:100378002C08A600A701A635A70D0B302607840078
:100388009030273D8500003FF000013FF1002E0826
:10039800F3002D08F2008631E92680317108FB0050
:1003A8007008FA008731602780317808303E2000D5
:1003B800A8002808B300112A2C08A600A701A63512
:1003C800A70DE830260784008730273D8500003FC9
:1003D800F000013FF1002E08F3002D08F2008631ED
:1003E800E926803170080F392000A8002808AA00E3
:1003F8002A08F03E840087300318013E8500000873
:10040800A6002608B300112A2F088039003A0319DC
:10041800B829803A0319E029112A3308A6003208BE
:1004280086008701260881000130A6002608B20749
:10043800FF30A6002608AC072C0A031D242A252A0B
:10044800082A2108A7002008A600A00A0319A10A63
:1004580026088400270885000008A8002808B3009B
:100468003308031D382A392A2E28320886008701C6
:1004780081010800F60023000F0C890C0139F200F5
:1004880011081F397204031D4A2A4B2A3F2A1114E6
:1004980011184F2A502A4C2A0F0C890C0139F200E6
:1004A80011081F397204031D5A2A5B2A502A4E303C
:1004B80086315B26823123000F0C890C0139F2004A
:1004C80011081F397204031D6A2A6B2A5F2A7608ED
:1004D800FA3886315B26823123000F0C890C0139EA
:1004E800F20011081F397204031D7B2A7C2A702A26
:1004F8007608FE3886315B26823123000F0C890C82
:100508000139F20011081F397204031D8C2A8D2A43
:10051800812A230091149118922A932A8F2A0F0C6A
:10052800890C0139F20011081F397204031D9D2A34
:100538009E2A932A4F3086315B26823123000F0C86
:10054800890C0139F20011081F397204031DAD2A04
:10055800AE2AA22A8731CE278231F2007208F4002F
:1005680023000F0C890C0139F20011081F3972049D
:10057800031DBF2AC02AB42A91161116111AC52ABA
:10058800C62AC22A91149118CA2ACB2AC72A0F0C44
:10059800890C0139F20011081F397204031DD52A8C
:1005A800D62ACB2A4E3086315B26823123000F0CA7
:1005B800890C0139F20011081F397204031DE52A5C
:1005C800E62ADA2A7608FA3886315B268231230051
:1005D8000F0C890C0139F20011081F397204031D30
:1005E800F62AF72AEB2A7608FE3886315B2682310E
:1005F80023000F0C890C0139F20011081F3972040D
:10060800031D072B082BFC2A2300911491180D2B8E
:100618000E2B0A2B0F0C890C0139F20011081F3917
:100628007204031D182B192B0E2B4F3086315B26B5
:10063800823123000F0C890C0139F20011081F398F
:100648007204031D282B292B1D2B8731CE278231BD
:10065800F2007208F50023000F0C890C0139F20032
:1006680011081F397204031D3A2B3B2B2F2B9116AF
:100678001116111A402B412B3D2B91149118452B23
:10068800462B422B0F0C890C0139F20011081F3937
:100698007204031D502B512B462B4E3086315B269E
:1006A800823123000F0C890C0139F20011081F391F
:1006B8007204031D602B612B552B7608FA3886319E
:1006C8005B26823123000F0C890C0139F2001108D6
:1006D8001F397204031D712B722B662B111511190A
:1006E800762B772B732B7508F2000430F236890BC2
:1006F8007A2B0F307205F3007408F0397304080080
:1007080023000F0C890C0139F20011081F397204FB
:10071800031D8F2B902B842B11141118942B952BC0
:10072800912B0F0C890C0139F20011081F39720442
:10073800031D9F2BA02B952B9A3086315B26833186
:1007480023000F0C890C0139F20011081F397204BB
:10075800031DAF2BB02BA42B013086315B268331D0
:1007680023000F0C890C0139F20011081F3972049B
:10077800031DBF2BC02BB42B91149118C42BC52B70
:10078800C12B0F0C890C0139F20011081F397204B2
:10079800031DCF2BD02BC52B9B3086315B26833195
:1007A80023000F0C890C0139F20011081F3972045B
:1007B800031DDF2BE02BD42B8731CE278331F200AA
:1007C8007208F30023000F0C890C0139F20011089C
:1007D8001F397204031DF12BF22BE62B911611160B
:1007E800111AF72BF82BF42B0F0C890C0139F20096
:1007F80011081F397204031D022C032CF82B111544
:100808001119072C082C042C731F0B2C0C2C842B6F
:100818000F0C890C0139F20011081F397204031DED
:10082800162C172C0C2C111411181B2C1C2C182CE2
:100838000F0C890C0139F20011081F397204031DCD
:10084800262C272C1C2C9A3086315B2683312300DA
:100858000F0C890C0139F20011081F397204031DAD
:10086800362C372C2B2C003086315B268331230025
:100878000F0C890C0139F20011081F397204031D8D
:10088800462C472C3B2C911491184B2C4C2C482C63
:100898000F0C890C0139F20011081F397204031D6D
:1008A800562C572C4C2C9B3086315B2683312300E9
:1008B8000F0C890C0139F20011081F397204031D4D
:1008C800662C672C5B2C8731CE278331F2007208A7
:1008D800F30023000F0C890C0139F20011081F39AD
:1008E8007204031D782C792C6D2C91161116111A8F
:1008F8007E2C7F2C7B2C0F0C890C0139F2001108FF
:100908001F397204031D892C8A2C7F2C111511198B
:100918008E2C8F2C8B2C73080800F5007508F03985
:10092800F3007308F6007508F3000330F335FF3E53
:10093800031D9A2C7335F039F4007408F70023006E
:100948000F0C890C0139F30011081F397304031DBA
:10095800AE2CAF2CA32C11141118B32CB42CB02C22
:100968000F0C890C0139F30011081F397304031D9A
:10097800BE2CBF2CB42C4E3086315B26843123002C
:100988000F0C890C0139F30011081F397304031D7A
:10099800CE2CCF2CC32C76087204083886315B26FF
:1009A800843123000F0C890C0139F30011081F3919
:1009B8007304031DE02CE12CD52C760872040C3846
:1009C80086315B26843123000F0C890C0139F30032
:1009D80011081F397304031DF22CF32CE72C760839
:1009E8007204083886315B26843123000F0C890C89
:1009F8000139F30011081F397304031D042D052D57
:100A0800F92C77087204083886315B268431230074
:100A18000F0C890C0139F30011081F397304031DE9
:100A2800162D172D0B2D770872040C3886315B268E
:100A3800843123000F0C890C0139F30011081F3988
:100A48007304031D282D292D1D2D770872040838DD
:100A580086315B26843123000F0C890C0139F300A1
:100A680011081F397304031D3A2D3B2D2F2D111525
:100A780011193F2D402D3C2D0430890B412D0800C4
:100A88002000CC01CD018F31D82785318F31E22765
:100A980085312000931513163E00CF154F1685316A
:100AA800EA25853100008331842385312000B40094
:100AB8003408C90080308F31B82785312630F900D5
:100AC8009030FA008731B327853185308F31B827C8
:100AD800853100302000A0009030A1004D08A3000F
:100AE8004C08A20038308031272085313830F90091
:100AF8000030FA008731B3278531C0308F31B827ED
:100B080085311F302000A0009030A1004908B400B2
:100B1800B5013408A2003508A300383080312720F9
:100B280085313830F9000030FA008731B327853134
:100B380081308F31B8278531003082313E228531AE
:100B48002000B4003408CA00013082313E228531C9
:100B58002000B4003408CB00C8308F31B827853165
:100B680015302000A0009030A1004A08B400B5015B
:100B78003408A2003508A3004B08B600B7013608B0
:100B8800A4003708A5003830803127208531383057
:100B9800F9000030FA008731B327853100000430AE
:100BA8002000B500CF30B4000130890BD92DB40B2B
:100BB800D92DB50BD92D003220004C08033ECC00AE
:100BC80000304D3DCD00562D80311C281130F800E5
:100BD8003A30890BED2DF80BED2D0032303086318F
:100BE800A626853134308631A62685312930890BF1
:100BF800FB2D003230308631A6268531FA3000329E
:100C0800890B032E30308631A62685313430863163
:100C1800A62685312930890B0F2E003230308631D7
:100C2800A62685310830890B172E00003030863112
:100C3800A626853134308631A62685312930890BA0
:100C4800232E003230308631A62685310830890BB4
:100C58002B2E000020308631A6268531243086319F
:100C6800A62685312930890B372E0032203086316F
:100C7800A6268531FA300032890B3F2EF201283042
:100C8800843191248531F2010630843191248531F3
:100C9800F2010F30843191248531F2010130843121
:100CA80091248531A630890B572E00320800F100B7
:100CB800710823008C00901F622E632E642EA52ECF
:100CC8000F301005F0000830700603196C2E6D2ED9
:100CD800832E0F301005F0000B3070060319752EA7
:100CE800762E832E10162E000F1C7B2E7C2E772E30
:100CF80023000F19802E812EA52E0F08A52E0F3048
:100D08001005F0000830700603198B2E8C2E952ED6
:100D18000F301005F0000B307006031D942E952E31
:100D2800A52E0F18982E992E952E0F0C890C013987
:100D3800F00011081F397004031DA32EA42E992E4C
:100D480011080800F30023000F0C890C0139F20088
:100D580011081F397204031DB22EB32EA72E1114C9
:100D68001118B72EB82EB42E0F0C890C0139F200C9
:100D780011081F397204031DC22EC32EB82E4E301F
:100D880086315B26863123000F0C890C0139F2006D
:100D980011081F397204031DD22ED32EC72E7308D3
:100DA80086315B26863123000F0C890C0139F2004D
:100DB80011081F397204031DE22EE32ED72E1115D8
:100DC8001119E72EE82EE42E0800F501F601700847
:100DD80071040319F02EF12E202FF701F70AFD2ECA
:100DE8000130F035F10D890BF52E0130F40074084F
:100DF800F707F11F002F012FF42E0130F535F60DFE
:100E0800890B022F71087302031D0C2F70087202E0
:100E1800031C0F2F102F152F7008F2027108F33BD7
:100E280075140130F136F00C890B162F0130F702DA
:100E3800031D1F2F202F012F7608F1007508F000E1
:100E4800080020009A01990196019701980107303E
:100E58009500FF309100FF309200FF309300FF3083
:100E68009400FF303E00D900E730CE00FF30C300C9
:100E78000730E400FF30B800DA01E501C401B90128
:100E8800CF01E601BA01C501D001DB01FF30BB008B
:100E9800FF30C600FF30D100FF30DC000730E7002C
:100EA80013303D00C50014303E00A3001530A400E7
:100EB80014303D00C6000800780879040319652F2E
:100EC800662F8F2FFD01FD0A722F0130F835F90DBD
:100ED800890B6A2F0130FC007C08FD07F91F752F6C
:100EE800762F692F79087B02031D7C2F78087A02F8
:100EF800031C7F2F802F842F7808FA027908FB3B88
:100F08000130F936F80C890B852F0130FD02031DDD
:100F18008E2F8F2F762F7B08F9007A08F8000800AB
:100F2800F401F501701C992F9A2F9E2F7208F4076F
:100F38007308F53D0130F235F30D890B9F2F013011
:100F4800F136F00C890BA42F70087104031DAD2F26
:100F5800AE2F962F7508F1007408F0000800B82F1E
:100F680020088F31BF2787317A08FC007908FB00F9
:100F7800F90A0319FA0A7B0884007C08850000082E
:100F8800FD007D082000A0002008031DCC2FCD2FD8
:100F9800B42F08000F3023001005F0000830700649
:100FA8000319D72FD82FE12F0F301005F0000B3081
:100FB8007006031DE02FE12FE22F91150F1CE52F7E
:100FC800E62FE22F0C0808000134003410340034F6
:100FD8000034013400341034303431343234333492
:100FE800343435343634373438343934613462344F
:0A0FF8006334643465346634003459
:101F7000F800F2017808843191248F310800F800CC
:101F8000F201F20A7808843191248F3108002F0081
:101F900096019701980199019A019B01080062300E
:101FA00031008D008F0191010230930092010800F1
:101FB0008F31C7278F31873125278F318F31CF2739
:101FC0008F3108002300901AE62FE72FED2F8F01A5
:101FD00028309000910103308D000800F100F001DD
:101FE0003A3071020318F52FF62FFE2F30307102B0
:101FF000031CFB2FFC2FFE2FF001F00A700C0800D1
:1020000043346C346F3463346B34203425343034CF
:10201000323464340034013400340A34003464341B
:102020000034E83403341034273425343034323467
:102030007834203425343034323478340034253444
:10204000303432346434203443340034543465340E
:062050006D347034003411
:020000040001F9
:0A000E00EC3FFF3F9F3FFF3FFF3F25
:00000001FF
